{
	"txid": "0425fa39feed4cd6c93998159901095c147f8b0043823067dc1d25dabf950ac9",
	"hash": "0425fa39feed4cd6c93998159901095c147f8b0043823067dc1d25dabf950ac9",
	"version": 2,
	"size": 368,
	"vsize": 368,
	"weight": 1472,
	"locktime": 732720,
	"vin": [
	  {
	    "txid": "d10175aedbdd0cf7550b53d3bbff80ebd389120aae4b7aae93f1c31e96eb8e21",
	    "vout": 0,
	    "scriptSig": {
	      "asm": "304402205072650c6aafdd27c6c54732dda88481530c82eba4d5b45b8b6a3d5226dfdacb02205038e5d509a5c0442092845a855f8c3ab409846af306afbfdaf9e3a7ac3a95fe[ALL] 03379c39b6fb2c705db608f98a8fc064f94c66faf894996ca88595487f9ef04a6e",
	      "hex": "47304402205072650c6aafdd27c6c54732dda88481530c82eba4d5b45b8b6a3d5226dfdacb02205038e5d509a5c0442092845a855f8c3ab409846af306afbfdaf9e3a7ac3a95fe012103379c39b6fb2c705db608f98a8fc064f94c66faf894996ca88595487f9ef04a6e"
	    },
	    "value": 2.00000000,
	    "valueSat": 200000000,
	    "address": "Qa36NrNdFgr4XeMxKdZeSZ1FGCdSNLmqXh",
	    "sequence": 4294967294
	  }
	],
	"vout": [
	  {
	    "value": 1.89868837,
	    "valueSat": 189868837,
	    "n": 0,
	    "scriptPubKey": {
	      "asm": "OP_DUP OP_HASH160 93594441cb5de8b497ad8467d55412c2a0ef3659 OP_EQUALVERIFY OP_CHECKSIG",
	      "hex": "76a91493594441cb5de8b497ad8467d55412c2a0ef365988ac",
	      "address": "Qa36NrNdFgr4XeMxKdZeSZ1FGCdSNLmqXh",
	      "type": "pubkeyhash",
	      "addresses": [
		"Qa36NrNdFgr4XeMxKdZeSZ1FGCdSNLmqXh"
	      ],
	      "reqSigs": 1
	    },
	    "spentTxId": "e588141d2646fa6f1fd865ae141df476f6687e36d2f90e2e38caeb483fe5dbfb",
	    "spentIndex": 4,
	    "spentHeight": 792374
	  },
	  {
	    "value": 0.00000000,
	    "valueSat": 0,
	    "n": 1,
	    "scriptPubKey": {
	      "asm": "1 93594441cb5de8b497ad8467d55412c2a0ef3659 6a4730440220396b30b7a2f2af482e585473b7575dd2f989f3f3d7cdee55fa34e93f23d5254d022055326cdcab38c58dc3e65c458bfb656cca8340f59534c00ad98b4d4d3303f459012103379c39b6fb2c705db608f98a8fc064f94c66faf894996ca88595487f9ef04a6e OP_SENDER 4 250000 40 -191784509 0000000000000000000000000000000000000086 OP_CALL",
	      "hex": "01011493594441cb5de8b497ad8467d55412c2a0ef36594c6b6a4730440220396b30b7a2f2af482e585473b7575dd2f989f3f3d7cdee55fa34e93f23d5254d022055326cdcab38c58dc3e65c458bfb656cca8340f59534c00ad98b4d4d3303f459012103379c39b6fb2c705db608f98a8fc064f94c66faf894996ca88595487f9ef04a6ec401040390d0030128043d666e8b140000000000000000000000000000000000000086c2",
	      "type": "call_sender"
	    }
	  }
	],
	"hex": "0200000001218eeb961ec3f193ae7a4bae0a1289d3eb80ffbbd3530b55f70cdddbae7501d1000000006a47304402205072650c6aafdd27c6c54732dda88481530c82eba4d5b45b8b6a3d5226dfdacb02205038e5d509a5c0442092845a855f8c3ab409846af306afbfdaf9e3a7ac3a95fe012103379c39b6fb2c705db608f98a8fc064f94c66faf894996ca88595487f9ef04a6efeffffff02252b510b000000001976a91493594441cb5de8b497ad8467d55412c2a0ef365988ac0000000000000000a801011493594441cb5de8b497ad8467d55412c2a0ef36594c6b6a4730440220396b30b7a2f2af482e585473b7575dd2f989f3f3d7cdee55fa34e93f23d5254d022055326cdcab38c58dc3e65c458bfb656cca8340f59534c00ad98b4d4d3303f459012103379c39b6fb2c705db608f98a8fc064f94c66faf894996ca88595487f9ef04a6ec401040390d0030128043d666e8b140000000000000000000000000000000000000086c2302e0b00",
	"blockhash": "d0d972f12350c6d0242c3ea8079634f79251322b0d2d4589031feb4f4eb4e51c",
	"confirmations": 1488370,
	"time": 1605390336,
	"blocktime": 1605390336,
	"height": 732721
      }